:020000040000fa
:080000000001040000000000f3
:020000040000fa
:040008001c1c0000bc
:020000040000fa
:04000c001c1c0000b8
:020000040000fa
:040010001c1c0000b4
:020000040000fa
:040014001c1c0000b0
:020000040000fa
:040018001c1c0000ac
:020000040000fa
:04001c001c1c0000a8
:020000040000fa
:040020001c1c0000a4
:020000040000fa
:040024001c1c0000a0
:020000040000fa
:040028001c1c00009c
:020000040000fa
:04002c001c1c000098
:020000040000fa
:040030001c1c000094
:020000040000fa
:040034000e040000b6
:020000040000fa
:040038001c1c00008c
:020000040000fa
:04003c001c1c000088
:020000040000fa
:040040004007000075
:020000040000fa
:040044001c1c000080
:020000040000fa
:040048001c1c00007c
:020000040000fa
:04004c00860d00001d
:020000040000fa
:040050001c1c000074
:020000040000fa
:040054001c1c000070
:020000040000fa
:040058001c1c00006c
:020000040000fa
:04005c001c1c000068
:020000040000fa
:040060001c1c000064
:020000040000fa
:040064001c1c000060
:020000040000fa
:040068001c1c00005c
:020000040000fa
:04006c001c1c000058
:020000040000fa
:040070001c1c000054
:020000040000fa
:040074001c1c000050
:020000040000fa
:040078001c1c00004c
:020000040000fa
:04007c00c8010000b7
:020000040000fa
:040080001c1c000044
:020000040000fa
:040084001c1c000040
:020000040000fa
:04008800540d000013
:020000040000fa
:04008c001c1c000038
:020000040000fa
:040090001c1c000034
:020000040000fa
:040094001c1c000030
:020000040000fa
:040098001c1c00002c
:020000040000fa
:04009c001c1c000028
:020000040000fa
:0400a0001c1c000024
:020000040000fa
:0400a4001c1c000020
:020000040000fa
:0400a8001c1c00001c
:020000040000fa
:0400ac001c1c000018
:020000040000fa
:0400b0001c1c000014
:020000040000fa
:0400b4001c1c000010
:020000040000fa
:0400b8001c1c00000c
:020000040000fa
:0400bc001c1c000008
:020000040000fa
:0400c0001c1c000004
:020000040000fa
:0400c4000a1c000012
:020000040000fa
:0400c8001c1c0000fc
:020000040000fa
:0400cc001c1c0000f8
:020000040000fa
:0400d0001c1c0000f4
:020000040000fa
:0400d4001c1c0000f0
:020000040000fa
:0400d8001c1c0000ec
:020000040000fa
:040108001c1c0000bb
:020000040000fa
:04010c001c1c0000b7
:020000040000fa
:040110001c1c0000b3
:020000040000fa
:040114001c1c0000af
:020000040000fa
:040118001c1c0000ab
:020000040000fa
:04011c001c1c0000a7
:020000040000fa
:040120001c1c0000a3
:020000040000fa
:040124001c1c00009f
:020000040000fa
:040128001c1c00009b
:020000040000fa
:04012c001c1c000097
:020000040000fa
:040130001c1c000093
:020000040000fa
:040134000e040000b5
:020000040000fa
:040138001c1c00008b
:020000040000fa
:04013c001c1c000087
:020000040000fa
:040140004007000074
:020000040000fa
:040144001c1c00007f
:020000040000fa
:040148001c1c00007b
:020000040000fa
:04014c00860d00001c
:020000040000fa
:040150001c1c000073
:020000040000fa
:040154001c1c00006f
:020000040000fa
:040158001c1c00006b
:020000040000fa
:04015c001c1c000067
:020000040000fa
:040160001c1c000063
:020000040000fa
:040164001c1c00005f
:020000040000fa
:040168001c1c00005b
:020000040000fa
:04016c001c1c000057
:020000040000fa
:040170001c1c000053
:020000040000fa
:040174001c1c00004f
:020000040000fa
:040178001c1c00004b
:020000040000fa
:04017c00c8010000b6
:020000040000fa
:040180001c1c000043
:020000040000fa
:040184001c1c00003f
:020000040000fa
:04018800540d000012
:020000040000fa
:04018c001c1c000037
:020000040000fa
:040190001c1c000033
:020000040000fa
:040194001c1c00002f
:020000040000fa
:040198001c1c00002b
:020000040000fa
:04019c001c1c000027
:020000040000fa
:0401a0001c1c000023
:020000040000fa
:0401a4001c1c00001f
:020000040000fa
:0401a8001c1c00001b
:020000040000fa
:0401ac001c1c000017
:020000040000fa
:0401b0001c1c000013
:020000040000fa
:0401b4001c1c00000f
:020000040000fa
:0401b8001c1c00000b
:020000040000fa
:0401bc001c1c000007
:020000040000fa
:0401c0001c1c000003
:020000040000fa
:0401c4000a1c000011
:020000040000fa
:0401c8001c1c0000fb
:020000040000fa
:0401cc001c1c0000f7
:020000040000fa
:0401d0001c1c0000f3
:020000040000fa
:0401d4001c1c0000ef
:020000040000fa
:0401d8001c1c0000eb
:020000040000fa
:100200002fa420000eff20000e0188000000000037
:10021000000020000000e000020032000001200089
:100220002002880014000700850d07000000e00090
:1002300003003a00404f2200010020000200370076
:100240000000200001002000810f7000010032003a
:1002500014000700000020000000e000020032004f
:100260000000020000000000d82002000000000092
:100270000040da000000fe004440a9000000200019
:100280000000e0000300320000002000a001880010
:100290004440a800000006008a1f78008b1f7800e9
:1002a0000000060091018800800478000000eb0047
:1002b0001a003700e284440032a0b4009905ba0065
:1002c000e284440032a0b4009906ba00e2844400fb
:1002d00032a0b4000006eb00476fde00fd07b2005d
:1002e000636ce10003003a00ebff07000000eb0045
:1002f0000a003700606ce10004003a00005deb008a
:100300008b05e900fdff3e00040037006168e10055
:10031000010032000086eb000b00070019c7ba008d
:100320001905ba000e04e00003003a000a00e000dc
:10033000e0ff3a0000000600fe07b2009e018800c0
:100340008a047800f5ff3700395dba008b05e900b3
:100350000c003200295dba008b05e900080032006c
:100360000c00e00003003a00e284440032a0b40034
:10037000f5ff370019ddba008b05e900faff3a00f6
:100380008904e800e184440032a0b40000000600c3
:10039000809fbe00829fbe00849fbe003400f80094
:1003a00000002000a00188000000fa0086a0a9003b
:1003b000b04d8000c14d800061004000e0804800e9
:1003c000b04d8800c14d8800b24d8000c34d800003
:1003d000f069280011002000800f5100818f590022
:1003e00003003400b629ef00b829ef000100370000
:1003f00000000000210480000080200000806000d8
:100400000000e000fbff3200001480000040880084
:1004100010148000104088008560a9000140800011
:10042000803e2000808f5000040036000e6aa80035
:10043000803e2000004088000a0037000140800014
:1004400030062000808f500004003e000eaaa80055
:100450004006200000408800020037000e6aa90014
:100460000eaaa90011408000803e2000808f50001d
:10047000040036000e8aa800803e2000104088004c
:100480000a0037001140800030062000808f5000a5
:1004900004003e000ecaa80040062000104088005c
:1004a000020037000e8aa9000ecaa900a01680001b
:1004b0006100600000f0a7000000ea000000e90011
:1004c0004f00de00004078000080fb00610060000b
:1004d000715080000100a100010070007050880080
:1004e000a01680006400600000f0a7000000ea0091
:1004f0000000e9004f00de00004078000080fb00b3
:100500006100600000004000715080000110a100f7
:100510000100700070508800a0168000620060002a
:1005200000f0a7000000ea000000e9004f00de0034
:10053000004078000080fb004f00dd00615080002b
:1005400001f0a1000100700060508800615080003f
:1005500000022000008060000000e0001000320077
:100560000d0aa9000d2aa9000d4aa9000d6aa900cb
:100570000d8aa9000daaa9000c4aa9000c6aa900bd
:100580000c2aa9000c0aa9000a4aa9000a6aa900b3
:100590000a2aa9000a0aa9000bcaa9000caaa900e4
:1005a00041508000000024000080600000f0a7009f
:1005b0000000ea000000e9004f00de008040780003
:1005c000605080007000600000f0a7000000ea00aa
:1005d0000000e9004f00de000040780000c070001d
:1005e0008080fb00505080004f00de00004078000b
:1005f0000080fb0081007000505080000000d1009e
:10060000614060000080fb0081007000505080005d
:100610004300de00614060000080fb00810070004c
:10062000505080004200de00614060000080fb000e
:10063000010070000000e000010032000bcaa800b9
:10064000824f8000934f8000404f8000514f8000c8
:1006500015c0b300800f5100818f59000100340094
:100660008042eb00624f8000734f8000204f80007b
:10067000314f800014c0b300800f5100818f5900aa
:1006800001003d000042eb0004c072000004e000e5
:10069000010032000bcaa800024e8000134e8000f9
:1006a000804f8000914f8000800f5100818f590052
:1006b00002003c0008caa8000100370008caa900cf
:1006c000024e8000134e8000604f8000714f80000a
:1006d000800f5100818f59000200350008aaa80040
:1006e0000100370008aaa900705080006140600036
:1006f0008080fb00405080004500de0061406000cb
:100700000080fb00010070000000e00002003200e9
:10071000086aa80001003700086aa900705080002c
:100720000000d100614060008080fb0040508000ec
:100730004600de00614060000080fb0001007000a8
:100740000000e00002003200088aa8000100370023
:10075000088aa90040508000614060008080fb0052
:10076000405080006200600000f0a7000000ea0036
:100770000000e9004f00de008080600050508000e3
:100780006100600000f0a7000000ea000000e9003e
:100790004f00de00008060000000e0000f0032002b
:1007a00040508000680060000000e00002003a0055
:1007b000090aa80001003700090aa900405080007a
:1007c000700060000000e00002003a00092aa80062
:1007d0000c003700092aa9000a003700090aa900fd
:1007e000092aa900004e8000114e8000c04e8800ea
:1007f000d14e88000a0aa9000aeaa8000acaa9007c
:1008000009aaa9000080fa003400f9004f02be00d6
:100810004f01be004f00be00004006003600f80049
:10082000809fbe00829fbe00849fbe00869fbe0048
:100830003400f80000002000a00188000000fa0049
:100840008460a900705080004200de0061406000ba
:100850008080fb00425080000010200000006100fa
:100860000000e00005003a00425080000020200017
:10087000000061000000e0000200320010002000d3
:10088000010037000000eb00008060000000e00085
:10089000a8003200d04f8000e14f8000e00f5000f0
:1008a000e08f580002003a00c421ef000d0037002d
:1008b000d04f8000e14f8000cf0c07000001be0048
:1008c0000068290081a124003c0c070002002000e0
:1008d00003f82300db0b0700ac0c070000007800d6
:1008e000200e8800200e8000b00e880009caa900e2
:1008f0000e4aa900d429ef00d629ef00098aa800e2
:1009000009aaa8005150800000002100008060006a
:100910000000e0004200320051508000000820003a
:10092000008060000000e0007d003a00515080002f
:1009300000042000008060000000e0007a003a001f
:1009400070508000640060000000e00078003a0011
:1009500070508000610060000000e0000f00320075
:10096000086aa800204f8000314f8000004e8800a8
:10097000114e8800004e8000114e8000c04e88004d
:10098000d14e8800c829ef00ca29ef00098aa900c2
:1009900009aaa90009caa80066003700a24e800073
:1009a000b34e8000804e8000914e8000800f510039
:1009b000818f590004003a00098aa90009aaa900f8
:1009c000000000005b003700d501a800d421a8007a
:1009d00088e0a900c1e1a8004104800000082000cf
:1009e000008060000000e000fbff3200a04e8000ad
:1009f000b14e800061004000e0804800a04e8800b9
:100a0000b14e8800004e8000114e80006100400011
:100a1000e0804800004e8800114e8800beff37007d
:100a20005150800000082000008060000000e000bd
:100a300040003a0051508000000420000080600017
:100a40000000e0003b003a0070508000640060004d
:100a50000000e00037003a00705080006200600043
:100a60000000e0000e003200088aa800404f80001d
:100a7000514f8000004e8800114e8800004e8000cb
:100a8000114e8000c04e8800d14e8800c829ef006a
:100a9000ca29ef00098aa90009aaa9002500370080
:100aa000a24e8000b34e8000804e8000914e8000a8
:100ab000800f5100818f590003003a00098aa90074
:100ac00009aaa9001b003700d501a800d421a9005c
:100ad00088e0a900c1e1a8004104800000082000ce
:100ae000008060000000e000fbff3200a04e8000ac
:100af000b14e800061004000e0804800a04e8800b8
:100b0000b14e8800004e8000114e80006100500000
:100b1000e0805800004e8800114e8800c0ff37006a
:100b20000000000003003700000000000100370053
:100b300000000000505080004600de006140600070
:100b40008080fb0042508000001020000000610007
:100b50000000e00005003a00425080000020200024
:100b6000000061000000e0000200320010002000e0
:100b7000010037000000eb00008060000000e00092
:100b8000a9003200d04f8000e14f8000e00f5000fc
:100b9000e08f580002003a00c421ef000d0037003a
:100ba000d04f8000e14f8000130c07000001be0011
:100bb0000068290081a12400800b070002002000aa
:100bc00003f823001f0b0700f00b0700000078005c
:100bd000200e8800200e8000b00e88000acaa900ee
:100be00009aaa800c24e8000d34e8000004e8000ab
:100bf000114e80000000510081805900404e880055
:100c0000514e8800404e8000514e8000e00f500051
:100c1000e08f58003f003500084aa8003500370033
:100c20005150800000082000008060000000e000bb
:100c300076003a00515080000004200000806000df
:100c40000000e00073003a00705080006400600013
:100c50000000e00071003a00024e8000134e800058
:100c6000604f8000714f8000800f5100818f5900cc
:100c70000900350008aaa800004e8000114e80002f
:100c8000c04e8800d14e8800c829ef00ca29ef0065
:100c90000000000062003700d501a800d421a800a0
:100ca00088e0a900c1e1a8004104800000082000fc
:100cb000008060000000e000fbff3200004e80007a
:100cc000114e800061004000e0804800004e880026
:100cd000114e8800c24e8000d34e8000004e80002e
:100ce000114e80000000510081805900404e880064
:100cf000514e8800024e8000134e8000c04e80008e
:100d0000d14e8000800f5100818f5900c4ff3a00fe
:100d100043003700084aa9003400370051508000d2
:100d200000082000008060000000e0003c003a0065
:100d30005150800000042000008060000000e000ae
:100d400037003a0070508000640060000000e0004e
:100d500033003a00024e8000134e8000804f800026
:100d6000914f8000800f5100818f590008003c0096
:100d700008caa800004e8000114e8000c04e8800b6
:100d8000d14e8800c829ef00ca29ef00240037009f
:100d9000d501a800d421a90088e0a900c1e1a800dc
:100da0004104800000082000008060000000e00096
:100db000fbff3200004e8000114e800061005000a9
:100dc000e0805800004e8800114e8800c24e80001e
:100dd000d34e8000004e8000114e80000000510074
:100de00081805900404e8800514e8800024e80009c
:100df000134e8000c04e8000d14e8000800f510005
:100e0000818f5900c5ff3a0005003700000000003f
:100e10000300370000000000010037000000000060
:100e200009aaa90009eaa800211b800070f82f0078
:100e3000008060000060a000201b880010002000df
:100e4000301b880020002000401b8800300020005c
:100e5000501b880040002000601b88006e63a800c3
:100e60000080fa003400f9004f03be004f02be00bc
:100e70004f01be004f00be003600f90000400600e2
:100e80003600f800809fbe00829fbe00849fbe0097
:100e9000869fbe00889fbe003400f800000020003e
:100ea000a00188000000fa0084c0a900904d8000d5
:100eb000a14d800061004000e0804800904d880016
:100ec000a14d8800924d8000a34d8000f06928005c
:100ed00011002000800f5100818f59000200340062
:100ee000b229ef00b429ef00aac9bf000040e80012
:100ef000aae9b700aac9bf00e24f5000e1023a00d8
:100f0000004080008000eb003b0b07000001be00aa
:100f100000002c00f1472400a80a0700020020006e
:100f200003f82300470a0700880b07000004be00ef
:100f3000105180008000eb002f0b07000001be0065
:100f40000800be009d0a07000004be00d0508000cb
:100f5000e15080000001be000000200001f82300e5
:100f6000960a07000001be000800be00360a07000e
:100f70000001be000000200001f823008f0a0700d6
:100f800032332900833824002e0a0700805088005d
:100f900091508800104080008000eb00160b070085
:100fa0000001be0000002c00f1472400830a070066
:100fb0000200200003f82300220a0700630b070049
:100fc0000004be00805180008000eb000a0b070087
:100fd0000001be000800be00780a07000004be0041
:100fe00040518000515180000001be0000002000ef
:100ff00001f82300710a07000001be000800be00ce
:10100000110a07000001be000000200001f82300c3
:101010006a0a07003233290083382400090a0700ce
:10102000a0508800b150880020c4b30012e8b70077
:1010300021508000d0cc2c000008b8004308de000e
:10104000004078000043b00013e8b7002250800051
:10105000d0cc2c000010b8004308de006a00b900b4
:101060000000780000005100004078000043b0000c
:1010700014e8b700c0c2b30015e8b700004e800006
:10108000114e80000000780000f0a7000000ea0088
:10109000cf80de00204e8800314e8800404e800018
:1010a000514e80000000780000f0a7000000ea0028
:1010b000cf80de00604e8800714e8800004e8000b8
:1010c000114e8000e00f5000e08f580003003d00fb
:1010d000d0c2b30016e8b70002003700b0c2b300b8
:1010e00016e8b700204e8000314e800002712200c9
:1010f00003002000730a0700a20020000300200064
:10110000690b0700004078000043b00017e8b70003
:10111000204e8000314e8000823e200003002000df
:10112000680a0700a2002000030020005e0b0700f1
:10113000004078000043b00018e8b700204e80005f
:10114000314e800042062000030020005d0a0700a7
:10115000a200200003002000530b0700004078008d
:101160000043b00019e8b700204e8000314e8000e7
:10117000a200200003002000520a0700a200200065
:1011800003002000480b0700004078000043b00037
:101190001ae8b700204e8000314e8000a2002000e7
:1011a00003002000400b0700004078000043b0001f
:1011b0001be8b700c0c2b3001ce8b700604e800057
:1011c000714e800002712200030020003d0a0700da
:1011d000a200200003002000330b0700004078002d
:1011e0000043b0001de8b700604e8000714e8000e3
:1011f000823e200003002000320a0700a2002000e7
:1012000003002000280b0700004078000043b000d6
:101210001ee8b700604e8000714e8000420620003c
:1012200003002000270a0700a2002000030020007e
:101230001d0b0700004078000043b0001fe8b70016
:10124000604e8000714e8000a2002000030020004c
:101250001c0a0700a200200003002000120b070058
:10126000004078000043b00020e8b700604e8000e6
:10127000714e8000a2002000030020000a0b07002e
:10128000004078000043b00021e8b700c0c2b300be
:1012900022e8b70030098000c400de00703420006e
:1012a0000008b8004309de00d0cc2c000010b800c4
:1012b0004308de006a00b900000078000000510019
:1012c000004078000043b00023e8b70030098000f8
:1012d000c300de00500c22000008b8004409de0004
:1012e000d0cc2c000010b8004308de006a00b90022
:1012f0000000780000005100004078000043b0007a
:1013000024e8b70030098000c200de00b0472100a9
:101310000008b8000101d100d0cc2c000010b800aa
:101320004308de006a00b9000000780000005100a8
:10133000004078000043b00025e8b7003109800084
:10134000d0cc2c000008b8004309de00d0cc2c0023
:101350000010b8004308de006a00b9000000780001
:1013600000005100004078000043b00026e8b700bc
:1013700032098000d0cc2c000010b8004308de00f9
:101380006a00b900000078000000510000407800b9
:101390000043b00027e8b700c0c2b30028e8b70098
:1013a000805080009150800018c0b3006011b800d8
:1013b000d30907000000e000010035000044eb0005
:1013c0000804e00003003200d0c2b30029e8b700ef
:1013d00002003700b0c2b30029e8b7008050800097
:1013e00091508000c80907000000780000017800d3
:1013f00002f0a7000201ea00b04721000090b90006
:10140000c388de004f90de0080805000a0002000e6
:1014100000017800110009008200d8008000fd0062
:10142000004078000043b0002ae8b70080508000f8
:1014300091508000b4090700000078000001780096
:1014400002f0a7000201ea00706626000090b900d1
:10145000c288de004f90de0080805000706626005b
:101460000089b9004299de004f88de00000051007b
:101470006a01b90002007800008050000040780046
:101480000043b0002be8b7008050800091508000ee
:101490009d090700000078008000780001f0a70097
:1014a0008100ea00a000200000017800110009007e
:1014b0008200d8008000fd00004078000043b000aa
:1014c0002ce8b700e0c2b3002de8b70080508000e0
:1014d000915080000200200003122400810a0700be
:1014e00089090700000078008000780001f0a7005b
:1014f0008100ea00a000200000017800110009002e
:101500008200d8008000fd00004078000043b00059
:101510002ee8b700c0c2b3002fe8b700a05080008b
:10152000b150800018c0b3006011b8007409070002
:101530000000e000010035000044eb000804e0007a
:1015400003003200d0c2b30030e8b7000200370019
:10155000b0c2b30030e8b700a0508000b1508000a6
:1015600069090700000078000001780002f0a70078
:101570000201ea00b04721000090b900c388de00f4
:101580004f90de0080805000a00020000001780015
:10159000110009008200d8008000fd0000407800a2
:1015a0000043b00031e8b700a0508000b150800087
:1015b00055090700000078000001780002f0a7003c
:1015c0000201ea00706626000090b900c288de00c1
:1015d0004f90de0080805000706626000089b900c0
:1015e0004299de004f88de00000051006a01b90018
:1015f0000200780000805000004078000043b000f6
:1016000032e8b700a0508000b15080003e090700ca
:10161000000078008000780001f0a7008100ea0057
:10162000a000200000017800110009008200d8000d
:101630008000fd00004078000043b00033e8b700b0
:10164000e0c2b30034e8b700a0508000b150800081
:101650000200200003122400220a07002a090700c2
:10166000000078008000780001f0a7008100ea0007
:10167000a000200000017800110009008200d800bd
:101680008000fd00004078000043b00035e8b7005e
:10169000c0c2b30036e8b700804f8000914f800091
:1016a000e00f5000e08f580003003d00d0c2b300af
:1016b00037e8b70002003700b0c2b30037e8b70020
:1016c000804f8000914f800000007800000178007a
:1016d00002f0a7000201ea0070a321000090b90007
:1016e000ca88de004f90de0080805000a0002000fd
:1016f00000017800110009008200d8008000fd0080
:10170000004078000043b00038e8b700804f800008
:10171000914f8000000078008000780001f0a70061
:101720008100ea00803e20000001780011000900dd
:101730008200d80080007800a0002000000178001e
:10174000110009008200d8008000fd0000407800f0
:101750000043b00039e8b700804f8000914f80000f
:10176000000078000001780002f0a7000201ea0002
:10177000b04721000090b900c388de004f90de0022
:1017800080805000a00020000001780011000900b6
:101790008200d8008000fd00004078000043b000c7
:1017a0003ae8b700804f8000914f80000000780039
:1017b0000001780002f0a7000201ea00706626002e
:1017c0000090b900c288de004f90de00808050009b
:1017d000706626000089b9004299de004f88de005d
:1017e000000051006a01b90002007800008050003a
:1017f000004078000043b0003be8b700804f800015
:10180000914f8000000078008000780001f0a70070
:101810008100ea00a000200000017800110009000a
:101820008200d8008000fd00004078000043b00036
:101830003ce8b700c0c2b3003de8b700604f80008d
:10184000714f8000e00f5000e08f580003003d0012
:10185000d0c2b3003ee8b70002003700b0c2b30008
:101860003ee8b700604f8000714f800000007800b4
:101870000001780002f0a7000201ea0070a3210035
:101880000090b900ca88de004f90de0080805000d2
:10189000a000200000017800110009008200d8009b
:1018a0008000fd00004078000043b0003fe8b70032
:1018b000604f8000714f8000000078008000780049
:1018c00001f0a7008100ea00803e200000017800be
:1018d000110009008200d80080007800a0002000dc
:1018e00000017800110009008200d8008000fd008e
:1018f000004078000043b00040e8b700604f80002f
:10190000714f8000000078000001780002f0a7000d
:101910000201ea00b04721000090b900c388de0050
:101920004f90de0080805000a00020000001780071
:10193000110009008200d8008000fd0000407800fe
:101940000043b00041e8b700604f8000714f800055
:10195000000078000001780002f0a7000201ea0010
:10196000706626000090b900c288de004f90de004d
:1019700080805000706626000089b9004299de0020
:101980004f88de00000051006a01b90002007800b3
:1019900000805000004078000043b00042e8b700eb
:1019a000604f8000714f8000000078008000780058
:1019b00001f0a7008100ea00a000200000017800eb
:1019c000110009008200d8008000fd00004078006e
:1019d0000043b00043e8b700c0c2b30044e8b7001a
:1019e000405080004800de000040780045e8b70025
:1019f000405080000040780046e8b700505080001a
:101a00004800de000040780047e8b70050508000f2
:101a10000040780048e8b700605080004800de00d1
:101a20000040780049e8b70060508000004078002e
:101a30004ae8b700705080004800de00004078009f
:101a40004be8b70070508000004078004ce8b700c9
:101a5000a0c0b3004de8b700d0c0b3004ee8b70057
:101a6000d0c3b30076e8b700d0c3b300dbe8b7005b
:101a700076c8bf0080407800208120009a0b0700c4
:101a8000aa69ef000080fa003400f9004f04be009c
:101a90004f03be004f02be004f01be004f00be000c
:101aa0003600f90000400600809fbe003400f800b8
:101ab00000002000a00188000000fa008700a900b3
:101ac00000000000c0108000610060000000e00025
:101ad000fcff3200e01080000040780041e9b700d0
:101ae000119420009140780020c5b30080cf5000b1
:101af00001003a00ffff37008700a9000080fa00cc
:101b00003400f9004f00be0000400600809fbe0078
:101b1000821f78003400f80000002000a001880037
:101b20000000fa00386aef000900370038cabf0029
:101b30008000fb00c08d20000080400001c3b30086
:101b40000148780038cabf000040e80038eab70012
:101b500038cabf00f84f5000f4ff34008520a900b8
:101b60009010800000407800dce8b700c18d2000b4
:101b70009140780020c4b30080cf500020073a0085
:101b800013e1a9000a21ef0084e0a90013e1a800f5
:101b90000800370021048000000820000080600059
:101ba0000000e0000300320013e1a9000d0aa800c4
:101bb0001307370070108000610060000000e00033
:101bc000f4ff32008520a90090108000804078004a
:101bd00000cdb30000c04000dde8b700a669ef000b
:101be0001d00370013e1a9000a21ef0084e0a900dd
:101bf00013e1a8000800370021048000000820003d
:101c0000008060000000e0000300320013e1a90042
:101c10000d0aa800fa06370070108000610060000d
:101c20000000e000f4ff32008520a900a6c9bf0033
:101c30000080fb000081e800901080008040780068
:101c4000c08d20000000410001487800a6c9bf00f7
:101c50000040e800a6e9b700d18d2000914078004f
:101c6000a6c9bf0080cf5000deff3e0013e1a900ef
:101c7000dec8bf000080fb0001052000810f50007e
:101c80006c01320031052000810f5000d706320070
:101c900031042000810f5000d1063a00f18d200060
:101ca0009140780080c4b30080cf500006003a0015
:101cb0000aeaa9000e4aa800f04f800001508000f7
:101cc000d04f8800e14f8800f18d200091407800ce
:101cd00060c5b30080cf500005003200f18d2000b8
:101ce0009140780060c7b30080cf500091003a0067
:101cf000018e200091407800f0c2b30080cf5000e8
:101d000007003600018e20009140780090c3b30098
:101d100080cf500002003e0010002000010037007c
:101d20000000eb0080407800128e20001241780005
:101d3000f0c2b300804f510007003600128e200021
:101d40001241780090c3b300804f510002003e0062
:101d500010002000010037000000eb000040780078
:101d600000c060008080fb00228e200012417800bd
:101d7000f0c2b300804f510007003600228e2000d1
:101d80001241780090c3b300804f510002003e0022
:101d900010002000010037000000eb008080600090
:101da000328e200012417800f0c2b300804f510003
:101db00007003600328e20001241780090c3b30035
:101dc000804f510002003e0010002000010037004b
:101dd0000000eb0080806000428e200012417800fd
:101de000f0c2b300804f510007003600428e200041
:101df0001241780090c3b300804f510002003e00b2
:101e000010002000010037000000eb00008060009f
:101e10000000e00045003200e0c8bf000080fb0089
:101e200001fd2f0080804000007122000088b90071
:101e300000017800e1c8bf000080fb0001fd2f0019
:101e400080804000803e20000088b90000007800bb
:101e500000014100e2c8bf008080fb004006200076
:101e60000088b9008000780000d42e000080400077
:101e700000014100e3c8bf000080fb006a00b90018
:101e800000007800001eb10080004100e4c8bf00df
:101e90000080fb00008040000003b100cf80de0026
:101ea000d04f8800e14f8800d04f8000e14f800084
:101eb000e00f5000e08f58000a003a00004e80000a
:101ec000114e8000c04e8800d14e88000acaa8007a
:101ed000f04f800001508000d04f8800e14f880013
:101ee00014003700f069280011002000c04e88005f
:101ef000d14e8800f18d20009140780060c7b3007a
:101f000080cf500006003a00c04e8000d14e8000c5
:101f100060001000e0801800c04e8800d14e88009c
:101f20000aeaa9000acaa800020037000d8aa80020
:101f300033063700f18d20009140780030c5b300a2
:101f400080cf500009003a00004e8000114e800002
:101f5000c04e8800d14e88000acaa800f04f800009
:101f600001508000d04f8800e14f8800f18d2000a3
:101f700091407800d0c2b30080cf500005003200fd
:101f8000f18d200091407800b0c2b30080cf5000a6
:101f900082003a00018e200091407800f0c2b30028
:101fa00080cf500007003600018e2000914078005d
:101fb00090c3b30080cf500002003e00100020000c
:101fc000010037000000eb0080407800128e2000f6
:101fd00012417800f0c2b300804f51000700360074
:101fe000128e20001241780090c3b300804f510040
:101ff00002003e0010002000010037000000eb004e
:102000000040780000c060008080fb00228e20002d
:1020100012417800f0c2b300804f51000700360033
:10202000228e20001241780090c3b300804f5100ef
:1020300002003e0010002000010037000000eb000d
:1020400080806000328e200012417800f0c2b30020
:10205000804f510007003600328e20001241780078
:1020600090c3b300804f510002003e0010002000da
:10207000010037000000eb0080806000428e2000ed
:1020800012417800f0c2b300804f510007003600c3
:10209000428e20001241780090c3b300804f51005f
:1020a00002003e0010002000010037000000eb009d
:1020b000008060000000e00036003200e0c8bf0091
:1020c0000080fb0001fd2f00808040000071220095
:1020d0000088b90000017800e1c8bf000080fb0063
:1020e00001fd2f0080804000803e20000088b90064
:1020f0000000780000014100e2c8bf008080fb00c2
:10210000400620000088b9008000780000d42e002e
:102110000080400000014100e3c8bf000080fb00d8
:102120006a00b90000007800001eb1008000410084
:10213000e4c8bf000080fb00008040000003b10045
:10214000cf80de00c04e8800d14e8800f18d200087
:1021500091407800d0c2b30080cf500006003a0012
:10216000c04e8000d14e800060001000e08018005a
:10217000c04e8800d14e88000aeaa9000acaa80009
:10218000f04f800001508000d04f8800e14f880060
:10219000020037000d8aa80099053700f18d200054
:1021a0009140780000c5b30080cf50000500320098
:1021b000f18d200091407800e0c4b30080cf500042
:1021c00019003a00f18d200091407800e0c4b3007e
:1021d00080cf500007003a00004e8000114e800072
:1021e00061005000e0805800c04e8800d14e880049
:1021f00006003700004e8000114e80006100400054
:10220000e0804800c04e8800d14e88000aeaa9004c
:102210000acaa800f04f800001508000d04f88000b
:10222000e14f8800760537000d8aa8000aeaa90068
:1022300073053700f18d20009140780070c5b30020
:1022400080cf500013053a00018e200091407800a5
:10225000f0c4b30080cf50008a003a00118e2000f5
:1022600091407800d0c2b30080cf5000050032000a
:10227000118e200091407800b0c2b30080cf500092
:1022800002003a0010002000010037000000eb00bf
:1022900080407800228e200012417800f0c2b30006
:1022a000804f510007003600228e20001241780036
:1022b00090c3b300804f510002003e001000200088
:1022c000010037000000eb000040780000c0600013
:1022d0008080fb00328e200012417800f0c2b300f3
:1022e000804f510007003600328e200012417800e6
:1022f00090c3b300804f510002003e001000200048
:10230000010037000000eb0080806000428e20005a
:1023100012417800f0c2b300804f51000700360030
:10232000428e20001241780090c3b300804f5100cc
:1023300002003e0010002000010037000000eb000a
:1023400080806000528e200012417800f0c2b300fd
:10235000804f510007003600528e20001241780055
:1023600090c3b300804f510002003e0010002000d7
:10237000010037000000eb0080806000628e2000ca
:1023800012417800f0c2b300804f510007003600c0
:10239000628e20001241780090c3b300804f51003c
:1023a00002003e0010002000010037000000eb009a
:1023b000008060000000e00030003200e2c8bf0092
:1023c0000080fb0001fd2f00808040000071220092
:1023d0000088b90000017800e3c8bf000080fb005e
:1023e00001fd2f0080804000803e20000088b90061
:1023f0000000780000014100e4c8bf008080fb00bd
:10240000400620000088b9008000780000d42e002b
:102410000080400000014100e5c8bf000080fb00d3
:102420006a00b90000007800001eb1008000410081
:10243000e6c8bf000080fb00008040000003b10040
:10244000cf80de00e04e8800f14e8800118e200023
:1024500091407800d0c2b30080cf500009003a000c
:10246000e04e8000f14e800060001000e080180017
:10247000e04e8800f14e8800020037000d8aa80067
:10248000df043700018e20009140780000c5b300c2
:1024900080cf50008a003a00118e200091407800d1
:1024a000d0c2b30080cf500005003200118e200052
:1024b00091407800b0c2b30080cf500002003a00d3
:1024c00010002000010037000000eb008040780081
:1024d000228e200012417800f0c2b300804f5100dc
:1024e00007003600228e20001241780090c3b3000e
:1024f000804f510002003e00100020000100370014
:102500000000eb000040780000c060008080fb000d
:10251000328e200012417800f0c2b300804f51008b
:1025200007003600328e20001241780090c3b300bd
:10253000804f510002003e001000200001003700d3
:102540000000eb0080806000428e20001241780085
:10255000f0c2b300804f510007003600428e2000c9
:102560001241780090c3b300804f510002003e003a
:1025700010002000010037000000eb0080806000a8
:10258000528e200012417800f0c2b300804f5100fb
:1025900007003600528e20001241780090c3b3002d
:1025a000804f510002003e00100020000100370063
:1025b0000000eb0080806000628e200012417800f5
:1025c000f0c2b300804f510007003600628e200039
:1025d0001241780090c3b300804f510002003e00ca
:1025e00010002000010037000000eb0000806000b8
:1025f0000000e00030003200e2c8bf000080fb00b5
:1026000001fd2f0080804000007122000088b90089
:1026100000017800e3c8bf000080fb0001fd2f002f
:1026200080804000803e20000088b90000007800d3
:1026300000014100e4c8bf008080fb00400620008c
:102640000088b9008000780000d42e00008040008f
:1026500000014100e5c8bf000080fb006a00b9002e
:1026600000007800001eb10080004100e6c8bf00f5
:102670000080fb00008040000003b100cf80de003e
:10268000204f8800314f8800118e20009140780043
:10269000d0c2b30080cf500009003a00204f800024
:1026a000314f800060001000e0801800204f88004b
:1026b000314f8800020037000d8aa800500437000f
:1026c000018e200091407800e0c4b30080cf50001c
:1026d0008a003a00118e200091407800d0c2b300e9
:1026e00080cf500005003200118e2000914078000c
:1026f000b0c2b30080cf500002003a0010002000aa
:10270000010037000000eb0080407800228e20009e
:1027100012417800f0c2b300804f5100070036002c
:10272000228e20001241780090c3b300804f5100e8
:1027300002003e0010002000010037000000eb0006
:102740000040780000c060008080fb00328e2000d6
:1027500012417800f0c2b300804f510007003600ec
:10276000328e20001241780090c3b300804f510098
:1027700002003e0010002000010037000000eb00c6
:1027800080806000428e200012417800f0c2b300c9
:10279000804f510007003600428e20001241780021
:1027a00090c3b300804f510002003e001000200093
:1027b000010037000000eb0080806000528e200096
:1027c00012417800f0c2b300804f5100070036007c
:1027d000528e20001241780090c3b300804f510008
:1027e00002003e0010002000010037000000eb0056
:1027f00080806000628e200012417800f0c2b30039
:10280000804f510007003600628e20001241780090
:1028100090c3b300804f510002003e001000200022
:10282000010037000000eb00008060000000e000c5
:1028300030003200e2c8bf000080fb0001fd2f0025
:1028400080804000007122000088b90000017800fb
:10285000e3c8bf000080fb0001fd2f008080400026
:10286000803e20000088b90000007800000141008f
:10287000e4c8bf008080fb00400620000088b9004b
:102880008000780000d42e0000804000000141004c
:10289000e5c8bf000080fb006a00b90000007800b6
:1028a000001eb10080004100e6c8bf000080fb00b0
:1028b000008040000003b100cf80de00404f880060
:1028c000514f8800118e200091407800d0c2b30093
:1028d00080cf500009003a00404f8000514f8000e7
:1028e00060001000e0801800404f8800514f8800c1
:1028f000020037000d8aa800c1033700018e2000b6
:102900009140780000c7b30080cf50008a003a00a1
:10291000118e200091407800d0c2b30080cf5000cb
:1029200005003200118e200091407800b0c2b30043
:1029300080cf500002003a00100020000100370054
:102940000000eb0080407800228e200012417800c9
:10295000f0c2b300804f510007003600228e2000e5
:102960001241780090c3b300804f510002003e0036
:1029700010002000010037000000eb00004078004c
:1029800000c060008080fb00328e20001241780081
:10299000f0c2b300804f510007003600328e200095
:1029a0001241780090c3b300804f510002003e00f6
:1029b00010002000010037000000eb008080600064
:1029c000428e200012417800f0c2b300804f5100c7
:1029d00007003600428e20001241780090c3b300f9
:1029e000804f510002003e0010002000010037001f
:1029f0000000eb0080806000528e200012417800c1
:102a0000f0c2b300804f510007003600528e200004
:102a10001241780090c3b300804f510002003e0085
:102a200010002000010037000000eb0080806000f3
:102a3000628e200012417800f0c2b300804f510036
:102a400007003600628e20001241780090c3b30068
:102a5000804f510002003e001000200001003700ae
:102a60000000eb00008060000000e0003000320059
:102a7000e2c8bf000080fb0001fd2f008080400005
:102a8000007122000088b90000017800e3c8bf008f
:102a90000080fb0001fd2f0080804000803e200070
:102aa0000088b9000000780000014100e4c8bf00c0
:102ab0008080fb00400620000088b900800078007c
:102ac00000d42e000080400000014100e5c8bf0096
:102ad0000080fb006a00b90000007800001eb10011
:102ae00080004100e6c8bf000080fb00008040007d
:102af0000003b100cf80de00604f8800714f880076
:102b0000118e200091407800d0c2b30080cf5000d9
:102b100009003a00604f8000714f80006000100093
:102b2000e0801800604f8800714f88000200370075
:102b30000d8aa80032033700018e200091407800f2
:102b4000e0c6b30080cf50008a003a00118e20000a
:102b500091407800d0c2b30080cf50000500320011
:102b6000118e200091407800b0c2b30080cf500099
:102b700002003a0010002000010037000000eb00c6
:102b800080407800228e200012417800f0c2b3000d
:102b9000804f510007003600228e2000124178003d
:102ba00090c3b300804f510002003e00100020008f
:102bb000010037000000eb000040780000c060001a
:102bc0008080fb00328e200012417800f0c2b300fa
:102bd000804f510007003600328e200012417800ed
:102be00090c3b300804f510002003e00100020004f
:102bf000010037000000eb0080806000428e200062
:102c000012417800f0c2b300804f51000700360037
:102c1000428e20001241780090c3b300804f5100d3
:102c200002003e0010002000010037000000eb0011
:102c300080806000528e200012417800f0c2b30004
:102c4000804f510007003600528e2000124178005c
:102c500090c3b300804f510002003e0010002000de
:102c6000010037000000eb0080806000628e2000d1
:102c700012417800f0c2b300804f510007003600c7
:102c8000628e20001241780090c3b300804f510043
:102c900002003e0010002000010037000000eb00a1
:102ca000008060000000e00030003200e2c8bf0099
:102cb0000080fb0001fd2f00808040000071220099
:102cc0000088b90000017800e3c8bf000080fb0065
:102cd00001fd2f0080804000803e20000088b90068
:102ce0000000780000014100e4c8bf008080fb00c4
:102cf000400620000088b9008000780000d42e0033
:102d00000080400000014100e5c8bf000080fb00da
:102d10006a00b90000007800001eb1008000410088
:102d2000e6c8bf000080fb00008040000003b10047
:102d3000cf80de00804f8800914f8800118e2000e8
:102d400091407800d0c2b30080cf500009003a0013
:102d5000804f8000914f800060001000e0801800dc
:102d6000804f8800914f8800020037000d8aa8002c
:102d7000a3023700018e20009140780030c5b300d7
:102d800080cf50006f003a00218e200091407800e3
:102d9000f0c2b30080cf500007003600218e200023
:102da0009140780090c3b30080cf500002003e00f5
:102db00010002000010037000000eb008040780088
:102dc000328e200012417800f0c2b300804f5100d3
:102dd00007003600328e20001241780090c3b30005
:102de000804f510002003e0010002000010037001b
:102df0000000eb000040780000c060008080fb0015
:102e0000428e200012417800f0c2b300804f510082
:102e100007003600428e20001241780090c3b300b4
:102e2000804f510002003e001000200001003700da
:102e30000000eb0080806000528e2000124178007c
:102e4000f0c2b300804f510007003600528e2000c0
:102e50001241780090c3b300804f510002003e0041
:102e600010002000010037000000eb0080806000af
:102e7000628e200012417800f0c2b300804f5100f2
:102e800007003600628e20001241780090c3b30024
:102e9000804f510002003e0010002000010037006a
:102ea0000000eb00008060000000e0002300320022
:102eb000e2c8bf000080fb0001fd2f0080804000c1
:102ec000007122000088b90000017800e3c8bf004b
:102ed0000080fb0001fd2f0080804000803e20002c
:102ee0000088b9000000780000014100e4c8bf007c
:102ef0008080fb00400620000088b9008000780038
:102f000000d42e000080400000014100e5c8bf0051
:102f10000080fb006a00b90000007800001eb100cc
:102f200080004100e6c8bf000080fb000080400038
:102f30000003b100c04f8800020037000d8aa800ce
:102f40002f023700018e20009140780020c5b30089
:102f500080cf50006f003a00218e20009140780011
:102f6000f0c2b30080cf500007003600218e200051
:102f70009140780090c3b30080cf500002003e0023
:102f800010002000010037000000eb0080407800b6
:102f9000328e200012417800f0c2b300804f510001
:102fa00007003600328e20001241780090c3b30033
:102fb000804f510002003e00100020000100370049
:102fc0000000eb000040780000c060008080fb0043
:102fd000428e200012417800f0c2b300804f5100b1
:102fe00007003600428e20001241780090c3b300e3
:102ff000804f510002003e00100020000100370009
:103000000000eb0080806000528e200012417800aa
:10301000f0c2b300804f510007003600528e2000ee
:103020001241780090c3b300804f510002003e006f
:1030300010002000010037000000eb0080806000dd
:10304000628e200012417800f0c2b300804f510020
:1030500007003600628e20001241780090c3b30052
:10306000804f510002003e00100020000100370098
:103070000000eb00008060000000e0002300320050
:10308000e2c8bf000080fb0001fd2f0080804000ef
:10309000007122000088b90000017800e3c8bf0079
:1030a0000080fb0001fd2f0080804000803e20005a
:1030b0000088b9000000780000014100e4c8bf00aa
:1030c0008080fb00400620000088b9008000780066
:1030d00000d42e000080400000014100e5c8bf0080
:1030e0000080fb006a00b90000007800001eb100fb
:1030f00080004100e6c8bf000080fb000080400067
:103100000003b10010508800020037000d8aa800ab
:10311000bb013700018e200091407800d0c4b3007d
:1031200080cf500071003a00218e2000914078003d
:10313000f0c2b30080cf500007003600218e20007f
:103140009140780090c3b30080cf500002003e0051
:1031500010002000010037000000eb0080407800e4
:10316000328e200012417800f0c2b300804f51002f
:1031700007003600328e20001241780090c3b30061
:10318000804f510002003e00100020000100370077
:103190000000eb000040780000c060008080fb0071
:1031a000428e200012417800f0c2b300804f5100df
:1031b00007003600428e20001241780090c3b30011
:1031c000804f510002003e00100020000100370037
:1031d0000000eb0080806000528e200012417800d9
:1031e000f0c2b300804f510007003600528e20001d
:1031f0001241780090c3b300804f510002003e009e
:1032000010002000010037000000eb00808060000b
:10321000628e200012417800f0c2b300804f51004e
:1032200007003600628e20001241780090c3b30080
:10323000804f510002003e001000200001003700c6
:103240000000eb00008060000000e000250032007c
:10325000e2c8bf000080fb0001fd2f00808040001d
:10326000007122000088b90000017800e3c8bf00a7
:103270000080fb0001fd2f0080804000803e200088
:103280000088b9000000780000014100e4c8bf00d8
:103290008080fb00400620000088b9008000780094
:1032a00000d42e000080400000014100e5c8bf00ae
:1032b0000080fb006a00b90000007800001eb10029
:1032c00080004100e6c8bf000080fb000080400095
:1032d0000003b100cf80de00a04f8800b14f88000e
:1032e000020037000d8aa80045013700018e20003a
:1032f0009140780060c5b30080cf500071003a0063
:10330000218e200091407800f0c2b30080cf5000a1
:1033100007003600218e20009140780090c3b30052
:1033200080cf500002003e00100020000100370056
:103330000000eb0080407800328e200012417800bf
:10334000f0c2b300804f510007003600328e2000db
:103350001241780090c3b300804f510002003e003c
:1033600010002000010037000000eb000040780052
:1033700000c060008080fb00428e20001241780077
:10338000f0c2b300804f510007003600428e20008b
:103390001241780090c3b300804f510002003e00fc
:1033a00010002000010037000000eb00808060006a
:1033b000528e200012417800f0c2b300804f5100bd
:1033c00007003600528e20001241780090c3b300ef
:1033d000804f510002003e00100020000100370025
:1033e0000000eb0080806000628e200012417800b7
:1033f000f0c2b300804f510007003600628e2000fb
:103400001241780090c3b300804f510002003e008b
:1034100010002000010037000000eb000080600079
:103420000000e00025003200e2c8bf000080fb0081
:1034300001fd2f0080804000007122000088b9004b
:1034400000017800e3c8bf000080fb0001fd2f00f1
:1034500080804000803e20000088b9000000780095
:1034600000014100e4c8bf008080fb00400620004e
:103470000088b9008000780000d42e000080400051
:1034800000014100e5c8bf000080fb006a00b900f0
:1034900000007800001eb10080004100e6c8bf00b7
:1034a0000080fb00008040000003b100cf80de0000
:1034b000f04f880001508800020037000d8aa800f4
:1034c000cf003700018e20009140780090c4b300f7
:1034d00080cf50006f003a00218e2000914078008c
:1034e000f0c2b30080cf500007003600218e2000cc
:1034f0009140780090c3b30080cf500002003e009e
:1035000010002000010037000000eb008040780030
:10351000328e200012417800f0c2b300804f51007b
:1035200007003600328e20001241780090c3b300ad
:10353000804f510002003e001000200001003700c3
:103540000000eb000040780000c060008080fb00bd
:10355000428e200012417800f0c2b300804f51002b
:1035600007003600428e20001241780090c3b3005d
:10357000804f510002003e00100020000100370083
:103580000000eb0080806000528e20001241780025
:10359000f0c2b300804f510007003600528e200069
:1035a0001241780090c3b300804f510002003e00ea
:1035b00010002000010037000000eb008080600058
:1035c000628e200012417800f0c2b300804f51009b
:1035d00007003600628e20001241780090c3b300cd
:1035e000804f510002003e00100020000100370013
:1035f0000000eb00008060000000e00023003200cb
:10360000e2c8bf000080fb0001fd2f008080400069
:10361000007122000088b90000017800e3c8bf00f3
:103620000080fb0001fd2f0080804000803e2000d4
:103630000088b9000000780000014100e4c8bf0024
:103640008080fb00400620000088b90080007800e0
:1036500000d42e000080400000014100e5c8bf00fa
:103660000080fb006a00b90000007800001eb10075
:1036700080004100e6c8bf000080fb0000804000e1
:103680000003b10020508800020037000d8aa80016
:103690005b003700f18d20009140780030c5b30009
:1036a00080cf500053003a00018e200091407800f6
:1036b00050c4b30080cf500002003a00d481a9006a
:1036c000080aa800018e20009140780040c4b30091
:1036d00080cf500002003a00d481a800080aa90057
:1036e000018e200091407800d0c4b30080cf5000fc
:1036f00001003a00082aa800018e200091407800bd
:1037000030c4b30080cf500001003a00082aa9005d
:10371000018e20009140780050c5b30080cf50004a
:1037200002003a00096aa900094aa900018e200096
:103730009140780080c5b30080cf500002003a006d
:10374000096aa800094aa900018e2000914078006a
:10375000e0c4b30080cf500002003a00096aa9001b
:10376000094aa800018e20009140780000c5b300ee
:1037700080cf500001003a000b0aa800018e200003
:103780009140780000c7b30080cf500001003a009c
:103790000b0aa900018e20009140780080c4b3007c
:1037a00080cf500001003a000b8aa800018e200053
:1037b0009140780080c6b30080cf500001003a00ed
:1037c0000b8aa900018e20009140780010c4b3003c
:1037d00080cf500009003a000caaa800080037006a
:1037e0000d2aa800000000000500370000000000be
:1037f0000300370000000000010037000000000057
:103800000080fa003400f9004f0178004f00be003c
:10381000004006003400f800881f780008002000ef
:10382000a80188004f0478000000fa000080fa0028
:103830003400f900004006000040da000000fe00fd
:103840000000050003f0a200889fbe008a9fbe0012
:103850008c1f7800250107002c0133006450e10023
:103860004f0032006420e1005200320003826c00fd
:1038700007003b000905d0000306d000820f54006a
:103880000c065d0002003900020032008901780058
:10389000030678008582550004003d000003fd000a
:1038a0008103fd008502ea008b854200840f7200cf
:1038b00002003b0060001000e08018006011b800ba
:1038c0000005eb007a28e1000a00390006007800c4
:1038d000c75ddd00f707b200878075002d00370057
:1038e000828171000a017800610560008180d10049
:1038f0000080d3008502e900f9ff3b000604400088
:103900008784480002003b0060041400e0841c002f
:103910000988a300070032008a817100828171004a
:10392000610164008904d1000884d3008b05e8009c
:10393000170037000978a30013003a000b00e000dd
:10394000130034008b05e9000804440089844c000e
:103950000a4474000978a3000d003a000b00e0004f
:10396000070034008b05e9000804440089844c00fa
:1039700001003a000b0020000978a300f7ff320095
:103980000001eb0002003700828171000a0178001b
:103990009b0007000cf0a70001f0a000e400370036
:1039a0006420e10002003a00838f6c00e4003300e1
:1039b0000801be000200be00dd003700889fbe0087
:1039c0008a9fbe008c1f7800c8000700cf0033001c
:1039d00003866c006450e1002e0032006420e10098
:1039e000330032006150e1002f0032006120e1001d
:1039f0003100320085855500eb07b000090020003a
:103a000008042000050037000804440089844c00a5
:103a10000a0031000603430087834b000001530076
:103a200081815b00f8ff33000203be000800a000a4
:103a30000804440089844c00f6ff3900c639dd00d3
:103a40008301730001003200130020008904d100bb
:103a50000884d3000998a300050032000800a700dd
:103a60000300a0008904d1000884d3008b05e8007e
:103a70008904d1000884d3000001eb000281d20048
:103a80005f00070001f0a1000cf0a70001f0a0000a
:103a9000a70037006420e100a90032000801be0041
:103aa0000200be00f7ff37006120e100a4003200f1
:103ab0006000b800f3ff37000000200001f8270085
:103ac000f0ff3700839f68000100e00002003d0026
:103ad00060001000e08018000300e00002003d00dc
:103ae00060011100e0811900320107004f00e00081
:103af00002003b0060001000e0801800000006009b
:103b0000140020004b0137000001be0062000700d6
:103b10000470a70003f0a1006509b100160032008f
:103b20000d0035006828e10006003500f0ff2f0089
:103b3000f1ff27000300e00013003b000100280014
:103b40000000050000004000818048008502e90077
:103b5000fcff3a0008003700f88f420002003c00ea
:103b60008000eb00000005008100d1000080d30040
:103b70008502e800fcff3a000300e00002003b0081
:103b800060001000e0801800000006000001be0088
:103b9000410007000470a70003f0a10003f8a30090
:103ba00013003a006509b100100032000900350029
:103bb0006928e1000200350001002800000005002e
:103bc00000004000818048008502e900fcff3a00c7
:103bd00000000600f88f4200050035008100d1008a
:103be0000080d3008502e800fcff3a0000000600d8
:103bf0008000eb00000005006011b8002d013700c7
:103c000081002000618055000b003d000b0020006a
:103c100061fe2f000100e1001d003400828171006f
:103c2000610164008904d1000884d3000000e80029
:103c3000faff3a0071002000610064000300700088
:103c4000020060000900320061044400e0844c007e
:103c50000988a500050032008b05e8006808e1002e
:103c600002003a008904d1000884d300f20f20003a
:103c70000258e10005003d00c75ddd00f907b20014
:103c80008980750008007800000006000bf8270006
:103c90008b00780000000500c70ade00f107b200c3
:103ca000f50fb20008003200e1cf420002003200fe
:103cb0000170a00024000500810f70000100320097
:103cc0000408050044000500810f700002003a005e
:103cd000140005008502e9000000400081c0480092
:103ce000fcff3b000170a000240005000004be00a2
:103cf000e9ff07000003be000405be000200be008d
:103d0000e5ff0700844f7500000006000200be00ba
:103d10006450e100050036006420e1000200360036
:103d20000968a30001003a000800be000160a0007d
:103d30004f0678004f05be004f04be00000006008d
:103d4000f0ff2f00f1ff2700f9ff3700889fbe002a
:103d50008a9fbe008c9fbe00a900070085047800e2
:103d60000005be006420e10049003e006220e10041
:103d700003003200090035000bf8a30044003200b4
:103d80000bf8a30008003200100220000052880047
:103d9000f0ff2f00f1ff27003d00370001f82f0052
:103da000000020003a0037003d000700a5fe070094
:103db0000006be000a00be00324f200053f323006d
:103dc000b7000700060034000c00be0034000700f6
:103dd0009cfe07000006be000a00be00020037007d
:103de0008904e9000c00be002d0007003d0007001b
:103df0002b00070094fe07000001be000c00be006f
:103e0000eefe07000005be000001be003500070001
:103e10000006be00a2f32300430d2c008afe07001b
:103e2000809fbe000c00be00d2e32700d3f02b0021
:103e30002c0007004f01be00e0fe07000006be0098
:103e40000a01be00270007000a01be007efe07002f
:103e50000006be006148b900930007000005be00df
:103e600032082800e3952b001e0007000c01be005d
:103e700075fe07000006be000a00be000200280012
:103e800013f32300170007000c01be006efe0700ad
:103e90004f06be004f05be004f04be0000000600e6
:103ea00003f0230002000500811f78000100e000fc
:103eb00002003d0060001000e08018000300e000f8
:103ec00002003d0060011100e08119004900070077
:103ed0004f00e00002003b0060001000e08018008e
:103ee00000000600889fbe008a9fbe008c1f7800dd
:103ef0007eff070085ff330003866c006450e100fd
:103f0000240032006420e100270032006150e1000b
:103f1000220032006120e100210032008b85420046
:103f2000eb07b1000134b800003ab80008044200c1
:103f300089844a00013ab8000030b8008880400007
:103f400009014a000400330000004000818048005d
:103f5000020149008b05e900c909dd0083017000f9
:103f60000100320013002000c814de004814dd00f8
:103f70004709de001200b200c808de0008847000a5
:103f80001fff070001f0a1000cf0a70001f0a00046
:103f900067ff37006120e10069ff32000801be00c1
:103fa0000200be00f7ff37006150e100fcff3a005d
:103fb00063ff37006022b800060220000000d00036
:103fc0008180d2000482d2008582d2000000a0004d
:103fd0000202520083825a000300310002024200b2
:103fe00083824a000000a1000603e900f3ff3a00c3
:103ff00000000600efff07000400be0000000600fe
:104000000003be0024ff07006220e100020032002e
:104010000600be0005000500e507b100f107b2008b
:1040200004f023008480700007f0a70001f0a000d6
:1040300024000500889fbe008a9fbe00841f780070
:104040002aff07004f00780011003300f0ff2f0017
:10405000838f6c0006003b00040565000a00a70082
:104060000800370009f0a600100020000800370003
:10407000820f5400838f5c00030039001000200081
:1040800001003e000000200009f0a7000000ea0047
:104090004f05be004f04be000000e0000000060017
:1040a000f4ff2f00e3ff37004f89de008201780024
:1040b0002f003700889fbe008a9fbe0000827000dc
:1040c0000402710004827100260032000004be0068
:1040d0000200be006011b8006b09200095022000ac
:1040e0000182cf000a0039000541b1000082cf00f3
:1040f000070039000541b1000982cf0004003900f2
:104100000541b1000882cf00010039000541b1002e
:1041100005425200120032000a003b008281710009
:10412000610164008100d1000080d3008984d30044
:104130000884d3008b05e8000442e800f7ff3a004a
:10414000070037000804440089844c000000480040
:10415000818048008b05e9000442e900f9ff3a003c
:10416000a7fe07004f05be004f04be00000006007a
:10417000881f7800030478000300e00007003d007a
:1041800060001000e080180060011900e081190053
:1041900002003b0001f02d0003003700c5ff0700bf
:1041a00008f0a70001f0a0004f047800000006000e
:020000040000fa
:1041b0000400fa00000f78001107980019000700aa
:1041c000b80007001d010700480107004a01070069
:1041d0007c010700fd000700ce000700309c200096
:1041e000200e8800309c2000b00e8800d4a1a900c9
:1041f000d501a900d441a800d461a900d401a80028
:10420000d421a900d4a1a80005e1a80011e1a800cb
:104210001fe1a800a1e2a8001822a9000e22a9000f
:10422000fdff37000000fa00007d200001002000a3
:10423000804e8800914e880000712200c050880096
:104240003033210051392400d0508800e1508800db
:1042500090f8200010518800007122002051880041
:104260000071220030518800303321005139240080
:10427000405188005151880090f8200080518800fa
:10428000007122009051880000002000010a2400e3
:10429000a0518800b1518800d202a800d222a80003
:1042a000d242a800082aef000a2aef00c029ef0036
:1042b000c229ef00d429ef00d629ef00c829ef006a
:1042c000ca29ef00d829ef00da29ef00dc29ef0036
:1042d000de29ef00e029ef00e229ef00204e200068
:1042e00001002000204f8800314f8800e829ef00ae
:1042f000ea29ef00004b200001002000604f8800f9
:10430000714f88002003200001002000804f8800aa
:10431000914f88000019200001002000a04f880064
:10432000b14f880000192000c04f8800a00f200066
:1043300001002000d04f8800e14f880020002000bd
:10434000105088000003200020508800803e20008c
:1043500001002000f04f880001508800080aa800e2
:10436000e0c4b30012e8b700f0c6b30013e8b7002a
:1043700040c7b30014e8b70000c2b30015e8b700a7
:1043800030c4b30016e8b700f0c6b30017e8b700b2
:10439000e0c6b30018e8b70060c6b30019e8b7007c
:1043a00090c6b3001ae8b70070c6b3001be8b700a8
:1043b00050c7b3001ce8b70020c7b3001de8b70022
:1043c00050c6b3001ee8b70040c6b3001fe8b700f0
:1043d00000c2b30020e8b700d0c0b30021e8b700a6
:1043e000a0c0b30022e8b70011e1a90011a1a90003
:1043f00010c1a90081088000f0fc2f00008060003f
:104400000040a000800888001021a9000621ef00cc
:1044100040422f006008880005e1a90005a1a9001d
:1044200004c1a90021088000f0fc2f00008060007a
:10443000200888000421a9000021ef00409c2000f2
:104440001008880013e1a90013a1a90012c1a90056
:10445000910880000003200001007000900888008f
:104460001221a9000a21ef00801a26007008880096
:104470001fe1a9001fa1a9001ec1a900f108800029
:10448000f0fc2f0000806000f00888001e21a900c9
:104490001421ef00409c2000d00888000080fa0022
:1044a000000006000000fa000de2a8000da2a9001d
:1044b0000d42a8006110800090ff2f000080600076
:1044c000601088000c02a90070002000a010880075
:1044d0000f42a90017e2a80017a2a900b11080009e
:1044e00090ff2f0000806000b01088001602a90025
:1044f00070002000f01088001942a800c110800050
:10450000f0f32f0000806000c01088000080fa00e7
:10451000000006000000fa00d802a900d822a90075
:10452000d842a900d862a900d882a900d8a2a900bf
:1045300010002000000e8800010e800030ff2f00c8
:10454000008060000020a000000e8800c3e1a900e8
:10455000c881a800c801a800c8a1a800c821a80057
:10456000c8c1a800c841a800c941a800c921a80025
:10457000c901a800d581a900d5a1a900d541a900ec
:10458000d561a900d501a900d521a900d401a900b0
:10459000d421a900d441a900d461a900d481a900e3
:1045a000d4a1a900ca21ef00309c2000200e880071
:1045b000309c2000b00e8800cc21ef00d021ef000d
:1045c000c621ef000080fa00000006000000fa009b
:1045d000a862a800a882a800a8a2a800c662a80095
:1045e000c682a800c6a2a80023e1a90023a1a900b1
:1045f0002381a9002361a800110980000070200018
:10460000010070001009880022e1a90022a1a90080
:104610001109800070fe2f000080600010098800e2
:104620002241a9002221a9002201a900007d200029
:10463000400988000080fa00000006000000fa002f
:10464000de02a800de22a900811c8000f08f2f006e
:104650000080600000a0a000801c88000000000016
:10466000811c8000000e2000808060000008200077
:10467000808f5000faff3a0091e3a8009163a900ef
:104680006e23ef00000f2000001b88006223ef0064
:1046900080002000201b88008e23ef007e23ef0087
:1046a000911c800000fc2f00008060003000b300ef
:1046b000901c880080012000a01c8800811c8000c4
:1046c000f08f2f0000806000801c88000000000038
:1046d000811c8000000e2000008060000000e000cf
:1046e000fbff3a000080fa00000006000000fa001c
:1046f0000080fa00000006000000fa0081e0a90036
:10470000f1048000f0f82f00808060000006200097
:1047100001007000f0048800c1048000f0f82f0050
:10472000008060000060a000c004880001058000d7
:1047300080ff2f00008060000020a000000588009e
:1047400031058000f0ff2800808060000000230019
:104750000100700030058800a1048000f0ff2800ef
:104760000080600000c0a000a0048800b1048000a8
:10477000f08f2f00008060000090a000b00488003f
:104780008c60a8008460a9008cc0a80084c0a90027
:104790008ce0a90084e0a9008ea0a80086a0a90052
:1047a00090e0a90088e0a9008d20a8008520a9003c
:1047b0008f00a8008700a9008540a9000080fa00aa
:1047c000000006000000fa00c642a800c6c2a80009
:1047d000a1e2a900a1a2a90001158000f0cf2f003d
:1047e000008060000015880001158000000e200088
:1047f0000100700000158800a042a800a022a900b6
:1048000011158000f0ff2100008060001015880065
:10481000a342a80011158000f0cf2f000080600097
:10482000101588001115800030fc2f0000806000fa
:104830000030a00010158800a222a900a202a90041
:1048400021158000f00f2e008080600000e0200025
:104850000100700020158800a4e2a9002115800045
:1048600000fc2f00008060000020a00020158800c0
:10487000a622ef003115800000ff2f0000806000ad
:104880000010a00030158800a802a800a822a800e7
:10489000a842a900a862a800a882a800a8a2a8000f
:1048a000a8c2a900a8e2a800a902a800aa22ef00b5
:1048b000aa02a900aa22a900aa42a800aa62a900e5
:1048c000aa82a900aaa2a900aac2a800aae2a900d5
:1048d000ab02a9000080fa00000006000000fa0008
:1048e0000080fa00000006000400fa00000f7800c3
:1048f000214798003f6aef00170037003fcabf000a
:104900000000fb001e004000104078000080fb000b
:10491000801088007110800000402000008060003e
:104920000000e00002003a000f42a800010037003a
:104930000000000021048000004020000080600092
:104940000000e000fbff32008540a9003fcabf0025
:104950000040e8003feab7003fcabf008000fb000c
:104960002e4090000080fb00808f5000e3ff350058
:104970000080fa00000006000400fa00000f780032
:10498000214798003e6aef000f0037003ecabf0083
:104990000000fb001e004000104078000080fb007b
:1049a000d010880000000000c1108000002020000e
:1049b000008060000000e000fbff3a003ecabf003c
:1049c0000040e8003eeab7003ecabf008000fb009e
:1049d0002e4090000080fb00808f5000ebff3500e0
:0849e0000080fa00000006004f
:020000040000fa
:1049e800000800004002000000000000400a00002b
:0c49f800020000000000000000000000b1
:020000040000fa
:0200000401f009
:04000000f2bf00004b
:020000040000fa
:0200000401f009
:04000400ff7f00007a
:020000040000fa
:0200000401f009
:040008007fff000076
:020000040000fa
:0200000401f009
:04001400ffffff00eb
:020000040000fa
:0200000401f009
:04001800ffff0000e6
:00000001FF
