:020000040000fa
:080000000001040000000000f3
:020000040000fa
:04000800b004000040
:020000040000fa
:04000c00b00400003c
:020000040000fa
:04001000b004000038
:020000040000fa
:04001400b004000034
:020000040000fa
:04001800b004000030
:020000040000fa
:04001c00b00400002c
:020000040000fa
:04002000b004000028
:020000040000fa
:04002400b004000024
:020000040000fa
:04002800b004000020
:020000040000fa
:04002c00b00400001c
:020000040000fa
:04003000b004000018
:020000040000fa
:04003400c8010000ff
:020000040000fa
:04003800b004000010
:020000040000fa
:04003c00b00400000c
:020000040000fa
:040040001e0300009b
:020000040000fa
:04004400b004000004
:020000040000fa
:04004800b004000000
:020000040000fa
:04004c009c04000010
:020000040000fa
:04005000b0040000f8
:020000040000fa
:04005400b0040000f4
:020000040000fa
:04005800b0040000f0
:020000040000fa
:04005c00b0040000ec
:020000040000fa
:04006000b0040000e8
:020000040000fa
:04006400b0040000e4
:020000040000fa
:04006800b0040000e0
:020000040000fa
:04006c00b0040000dc
:020000040000fa
:04007000b0040000d8
:020000040000fa
:04007400b0040000d4
:020000040000fa
:04007800b0040000d0
:020000040000fa
:04007c00b0040000cc
:020000040000fa
:04008000b0040000c8
:020000040000fa
:04008400b0040000c4
:020000040000fa
:0400880088040000e8
:020000040000fa
:04008c00b0040000bc
:020000040000fa
:04009000b0040000b8
:020000040000fa
:04009400b0040000b4
:020000040000fa
:04009800b0040000b0
:020000040000fa
:04009c00b0040000ac
:020000040000fa
:0400a000b0040000a8
:020000040000fa
:0400a400b0040000a4
:020000040000fa
:0400a800b0040000a0
:020000040000fa
:0400ac00b00400009c
:020000040000fa
:0400b000b004000098
:020000040000fa
:0400b400b004000094
:020000040000fa
:0400b800b004000090
:020000040000fa
:0400bc00b00400008c
:020000040000fa
:0400c000b004000088
:020000040000fa
:0400c400b004000084
:020000040000fa
:0400c800b004000080
:020000040000fa
:0400cc00b00400007c
:020000040000fa
:0400d000b004000078
:020000040000fa
:0400d400b004000074
:020000040000fa
:0400d800b004000070
:020000040000fa
:04010800b00400003f
:020000040000fa
:04010c00b00400003b
:020000040000fa
:04011000b004000037
:020000040000fa
:04011400b004000033
:020000040000fa
:04011800b00400002f
:020000040000fa
:04011c00b00400002b
:020000040000fa
:04012000b004000027
:020000040000fa
:04012400b004000023
:020000040000fa
:04012800b00400001f
:020000040000fa
:04012c00b00400001b
:020000040000fa
:04013000b004000017
:020000040000fa
:04013400c8010000fe
:020000040000fa
:04013800b00400000f
:020000040000fa
:04013c00b00400000b
:020000040000fa
:040140001e0300009a
:020000040000fa
:04014400b004000003
:020000040000fa
:04014800b0040000ff
:020000040000fa
:04014c009c0400000f
:020000040000fa
:04015000b0040000f7
:020000040000fa
:04015400b0040000f3
:020000040000fa
:04015800b0040000ef
:020000040000fa
:04015c00b0040000eb
:020000040000fa
:04016000b0040000e7
:020000040000fa
:04016400b0040000e3
:020000040000fa
:04016800b0040000df
:020000040000fa
:04016c00b0040000db
:020000040000fa
:04017000b0040000d7
:020000040000fa
:04017400b0040000d3
:020000040000fa
:04017800b0040000cf
:020000040000fa
:04017c00b0040000cb
:020000040000fa
:04018000b0040000c7
:020000040000fa
:04018400b0040000c3
:020000040000fa
:0401880088040000e7
:020000040000fa
:04018c00b0040000bb
:020000040000fa
:04019000b0040000b7
:020000040000fa
:04019400b0040000b3
:020000040000fa
:04019800b0040000af
:020000040000fa
:04019c00b0040000ab
:020000040000fa
:0401a000b0040000a7
:020000040000fa
:0401a400b0040000a3
:020000040000fa
:0401a800b00400009f
:020000040000fa
:0401ac00b00400009b
:020000040000fa
:0401b000b004000097
:020000040000fa
:0401b400b004000093
:020000040000fa
:0401b800b00400008f
:020000040000fa
:0401bc00b00400008b
:020000040000fa
:0401c000b004000087
:020000040000fa
:0401c400b004000083
:020000040000fa
:0401c800b00400007f
:020000040000fa
:0401cc00b00400007b
:020000040000fa
:0401d000b004000077
:020000040000fa
:0401d400b004000073
:020000040000fa
:0401d800b00400006f
:020000040000fa
:100200004f8c20000eff20000e018800000000002f
:10021000000020000000e000020032000001200089
:100220002002880014000700cf0107000000e00052
:1002300003003a0000942000010020000200370073
:100240000000200001002000810f7000010032003a
:1002500014000700000020000000e000020032004f
:1002600000000200000000000e0702000000000075
:100270000040da000000fe004440a9000000200019
:100280000000e0000300320000002000a001880010
:100290004440a800000006008a1f78008b1f7800e9
:1002a0000000060091018800800478000000eb0047
:1002b0001a003700e284440032a0b4009905ba0065
:1002c000e284440032a0b4009906ba00e2844400fb
:1002d00032a0b4000006eb00476fde00fd07b2005d
:1002e000636ce10003003a00ebff07000000eb0045
:1002f0000a003700606ce10004003a00005deb008a
:100300008b05e900fdff3e00040037006168e10055
:10031000010032000086eb000b00070019c7ba008d
:100320001905ba000e04e00003003a000a00e000dc
:10033000e0ff3a0000000600fe07b2009e018800c0
:100340008a047800f5ff3700395dba008b05e900b3
:100350000c003200295dba008b05e900080032006c
:100360000c00e00003003a00e284440032a0b40034
:10037000f5ff370019ddba008b05e900faff3a00f6
:100380008904e800e184440032a0b40000000600c3
:100390003600f800809fbe00829fbe00849fbe0092
:1003a000869fbe00889fbe003400f8000000200039
:1003b000a00188000000fa008460a90010448000b9
:1003c0000000e8001044880010448000ea0f50004c
:1003d00091003a00a01680004300de0061406000fa
:1003e0000080fb00610060004500dd00f1458000f9
:1003f0000150a10001007000f04588001016800037
:100400004b00de00614060000080fb006100600086
:100410004400dd00f14580000140a10001007000b2
:10042000f045880040168000004078006140600080
:100430000080fb00610060004300dd00f1458000aa
:100440000130a10001007000f045880000000000ac
:100450002104800000802000008060000000e00097
:10046000fbff320000148000d0448800101480008c
:100470001040880020148000304588008560a90065
:10048000c0448000610060000000e00061003a00ac
:10049000f145800000022000008060000000e000c4
:1004a0000300320000c0eb00b6e8b700bee8a800c9
:1004b000f0458000700060000000e00003003200a2
:1004c00010c0b300b6e8b700bee8a800f045800051
:1004d0007000600000f0a7000000ea000000e900e2
:1004e0004f00de0080407800f245800000022000ce
:1004f0000000610000f0a7000000ea000000e90031
:100500004f00de000040780000c060000004e00002
:1005100002003200b668ef00bee8a900d1448000b6
:10052000e044800000805000cf80de0072010700b0
:100530000004be00e0448000cf80de006e010700b2
:100540000001be000800be000801070002002000f4
:1005500003582400050107000004be003045800058
:10056000cf80de00640107000001be000800be006d
:10057000b70107000004be00f0448000cf80de0019
:100580005d0107000001be000800be00b0010700c9
:100590003801070000007800c0458800c145800090
:1005a00000458000808f500006003400c145800067
:1005b00010458000808f500002003d00b828ef00f9
:1005c000bec8a900d1458000c0458000808f500082
:1005d00004003200c0458000d0458800bec8a80095
:1005e000bee8a900f04580004600de0061406000e2
:1005f0008080fb00f04580004700de006140600025
:100600000080fb00010070000000e00001003200eb
:100610009808a8008228ef000080fa003400f90052
:100620004f04be004f03be004f02be004f01be008c
:100630004f00be003600f900004006003600f8000a
:10064000809fbe00829fbe00849fbe00869fbe002a
:100650003400f80000002000a00188000000fa002b
:1006600084c0a900604480007144800061004000a3
:10067000e080480060448800714488006244800043
:1006800073448000f069280011002000800f5100a1
:10069000818f5900020034008c28ef008e28ef0073
:1006a00084c8bf000040e80084e8b70084c8bf00e9
:1006b000e24f500005003200f145800000082000a4
:1006c000008060000000e00089003200c04480002b
:1006d000610060000000e0008400320020c4b3002c
:1006e00018e8b700f1458000000420000080600099
:1006f0000000e00064003200c04580000000e0001f
:100700000a003a0020c3b30019e8b70030c4b300b0
:100710001ae8b70030c5b3001be8b70040c0b3000b
:1007200031e8b700bec8a9005700370070c3b30056
:1007300019e8b70030c4b3001ae8b700c04580001c
:1007400000f0a7000000ea00e0458800c0458000f6
:100750000000e0000300350060c7b3001be8b700ed
:100760000200370060c5b3001be8b700e245800017
:1007700070a321000090b900ca88de004f90de000f
:1007800080805000a00020000001780011000900c6
:100790008200d8008000fd00004078000043b000d7
:1007a0001ce8b700e1458000803e20000001780091
:1007b000110009008200d80080007800a00020000d
:1007c00000017800110009008200d8008000fd00bf
:1007d000004078000043b0001de8b700e24580000b
:1007e000b04721000090b900c388de004f90de00c2
:1007f00080805000a0002000000178001100090056
:100800008200d8008000fd00004078000043b00066
:100810001ee8b700e2458000706626000090b9002f
:10082000c288de004f90de00808050007066260097
:100830000089b9004299de004f88de0000005100b7
:100840006a01b90002007800008050000040780082
:100850000043b0001fe8b700e1458000a000200081
:1008600000017800110009008200d8008000fd001e
:10087000004078000043b00020e8b70090c0b3000b
:1008800031e8b700bec8a900f1458000000820008b
:10089000008060000000e0000f00320020c3b300c1
:1008a00019e8b70030c4b3001ae8b700b6c8bf00f3
:1008b000e14f500003003a0000c5b3001be8b70049
:1008c00002003700e0c4b3001be8b70040c0b3002b
:1008d00031e8b700bee8a9009808a90031c8bf00f8
:1008e0008040780080812000250207008468ef00a6
:1008f0000080fa003400f9004f03be004f02be0032
:100900004f01be004f00be003600f9000040060057
:100910003400f800881f780008002000a801880033
:100920004f0478000000fa008700a9000080fa0058
:100930003400f900004006003400f800881f7800f9
:1009400008002000a80188004f0478000000fa0089
:100950008520a9000080fa003400f900004006005c
:100960000040da000000fe0000000500889fbe0085
:100970008a9fbe008c1f78009d000700a4003300f2
:1009800003866c006450e1002e0032006420e10018
:10099000330032006150e1002f0032006120e1009d
:1009a0003100320085855500eb07b00009002000ba
:1009b00008042000050037000804440089844c0026
:1009c0000a0031000603430087834b0000015300f7
:1009d00081815b00f8ff33000203be000800a00025
:1009e0000804440089844c00f6ff3900c639dd0054
:1009f0008301730001003200130020008904d1003c
:100a00000884d3000998a300050032000800a7005d
:100a10000300a0008904d1000884d3008b05e800fe
:100a20008904d1000884d3000001eb000281d200c8
:100a30003400070001f0a1000cf0a70001f0a000b5
:100a40007c0037006420e1007e0032000801be0017
:100a50000200be00f7ff37006120e100790032009c
:100a60006000b800f3ff37000000200001f8270005
:100a7000f0ff37000001be00480007000470a70027
:100a800003f0a1006509b100160032000d00350029
:100a90006828e10006003500f0ff2f00f1ff270075
:100aa0000300e00013003b000100280000000500e7
:100ab00000004000818048008502e900fcff3a0008
:100ac00008003700f88f420002003c008000eb0075
:100ad000000005008100d1000080d3008502e800fd
:100ae000fcff3a000300e00002003b006000100041
:100af000e0801800000006004f89de0082017800c7
:100b00008700370081002000618055000b003d0008
:100b10000b00200061fe2f000100e1001d003400e9
:100b200082817100610164008904d1000884d300ce
:100b30000000e800faff3a00710020006100640044
:100b400003007000020060000900320061044400ec
:100b5000e0844c000988a500050032008b05e80000
:100b60006808e10002003a008904d1000884d3003b
:100b7000f20f20000258e10005003d00c75ddd00d6
:100b8000f907b200898075000800780000000600af
:100b90000bf827008b00780000000500c70ade0074
:100ba000f107b200f50fb20008003200e1cf4200b9
:100bb000020032000170a00024000500810f7000c7
:100bc000010032000408050044000500810f700098
:100bd00002003a00140005008502e9000000400010
:100be00081c04800fcff3b000170a000240005000c
:100bf0000004be00e9ff07000003be000405be00bc
:100c00000200be00e5ff0700844f750000000600eb
:100c10000200be006450e100050036006420e100df
:100c2000020036000968a30001003a000800be0077
:100c30000160a0004f0678004f05be004f04be00c3
:100c400000000600f0ff2f00f1ff2700f9ff37003a
:100c5000889fbe008a9fbe008c1f7800e4ff0700bb
:100c6000ebff330003866c006450e1002400320087
:100c70006420e100270032006150e10022003200d0
:100c80006120e100210032008b854200eb07b100ba
:100c90000134b800003ab8000804420089844a00d0
:100ca000013ab8000030b8008880400009014a00cd
:100cb0000400330000004000818048000201490028
:100cc0008b05e900c909dd008301700001003200d5
:100cd00013002000c814de004814dd004709de00c0
:100ce0001200b200c808de000884700085ff07000b
:100cf00001f0a1000cf0a70001f0a000cdff37002b
:100d00006120e100cfff32000801be000200be00fa
:100d1000f7ff37006150e100fcff3a00c9ff3700e0
:100d2000881f7800030478000300e00007003d00fe
:100d300060001000e080180060011900e0811900d7
:100d400002003b0001f02d00030037000400070003
:100d500008f0a70001f0a0004f0478000000060092
:100d6000889fbe008a9fbe0000827000040271004e
:100d700004827100260032000004be000200be00a2
:100d80006011b8006b092000950220000182cf009d
:100d90000a0039000541b1000082cf000700390088
:100da0000541b1000982cf00040039000541b100be
:100db0000882cf00010039000541b1000542520010
:100dc000120032000a003b00828171006101640060
:100dd0008100d1000080d3008984d3000884d3002f
:100de0008b05e8000442e800f7ff3a0007003700ef
:100df0000804440089844c000000480081804800b9
:100e00008b05e9000442e900f9ff3a003dff0700c5
:0c0e10004f05be004f04be0000000600ad
:020000040000fa
:100e1c000400fa00000f7800110798000c0007007e
:100e2c003e000700c2000700590007007c000700c5
:100e3c00bc00070007e2a80005e1a80011e1a8002a
:100e4c00a1e2a8001822a9000e22a900fdff37007c
:100e5c000000fa00803e2000f04488000080200052
:100e6c00e0448800c0f92f000045880040062000af
:100e7c0010458800c602a800c162a800d242a80092
:100e8c00d262a800d302a800d322a80011e1a900c5
:100e9c0011a1a90010c1a90081088000f0fc2f004d
:100eac00008060000040a000800888001021a9008c
:100ebc000621ef0020a127006008880005e1a900a9
:100ecc0005a1a90004c1a90021088000f0fc2f0095
:100edc0000806000200888000421a9000021ef0098
:100eec00801a26001008880013e1a90013a1a9009c
:100efc0012c1a900910880000003200001007000bd
:100f0c00900888001221a9000a21ef00801a2600ff
:100f1c00700888000080fa00000006000000fa004b
:100f2c000de2a8000da2a9000d42a80061108000de
:100f3c0090ff2f0000806000601088000c02a90058
:100f4c0070002000a01088000f42a90017e2a80032
:100f5c0017a2a900b110800090ff2f000080600044
:100f6c00b01088001602a90070002000f010880054
:100f7c001942a800c1108000f0f32f00008060001f
:100f8c00c01088008720a9000080fa00000006002d
:100f9c000000fa0081e0a900c1048000f0f82f00e5
:100fac00008060000060a000c00488000105800083
:100fbc0080ff2f00008060000020a000000588004a
:100fcc00a1048000f0ff2800808060000000230056
:100fdc0001007000a0048800b1048000f08f2f0085
:100fec00008060000080a000b00488008c60a80025
:100ffc008460a9008cc0a80084c0a9008ce0a90062
:10100c0084e0a9008d20a8008520a9008f00a800ed
:10101c008700a9008540a9000080fa0000000600a6
:10102c000000fa00c622a800c642a800c702a80009
:10103c00c722a800c742a800c762a800c782a800a0
:10104c00a1e2a900a1a2a90001158000f0cf2f00f8
:10105c00008060000015880001158000000e200043
:10106c000100700000158800a042a800a022a90071
:10107c0011158000f0ff2100008060001015880021
:10108c00a342a8001115800030fc2f0000806000e6
:10109c000030a00010158800a222a900a202a9000d
:1010ac0021158000f00f2e008080600000e02000f1
:1010bc000100700020158800a4e2a9002115800011
:1010cc0000fc2f00008060000020a000201588008c
:1010dc00f00f200040158800a802a800a822a90043
:1010ec00a842a900a902a900a922a900a942a90005
:1010fc00a962a900a982a900aa22ef00aa02a9004c
:10110c00aa22a800aa42a800ab02a800ab22a90000
:10111c00ab42a900ab62a900ab82a9000080fa0027
:10112c00000006000000fa000080fa000000060033
:10113c000000fa000742a90007e2a9000002200003
:10114c005010880050012000201088000080fa0008
:10115c00000006000000fa000080fa000000060003
:10116c000200fa00004f7800114798000080fa0046
:10117c00000006000400fa00000f780021479800d8
:10118c00c368ef0017003700c3c8bf000000fb00a6
:10119c001e004000104078000080fb00801088008a
:1011ac007110800000402000008060000000e00012
:1011bc0002003a000f42a8000100370000000000b6
:1011cc002104800000402000008060000000e0004e
:1011dc00fbff32008540a900c3c8bf000040e800f7
:1011ec00c3e8b700c3c8bf008000fb002e409000ce
:1011fc000080fb00808f5000e3ff35000080fa0078
:10120c00000006000400fa00000f78002147980047
:10121c00c268ef000f003700c2c8bf000000fb001f
:10122c001e004000104078000080fb00d0108800a9
:10123c0000000000c1108000002020000080600031
:10124c000000e000fbff3a00c2c8bf000040e8000d
:10125c00c2e8b700c2c8bf008000fb002e4090005f
:10126c000080fb00808f5000ebff35000080fa00ff
:04127c000000060068
:020000040000fa
:1012800000080000c4000000000000000000000092
:020000040000fa
:0200000401f009
:04000000e2bb00005f
:020000040000fa
:0200000401f009
:04000400ff7f00007a
:020000040000fa
:0200000401f009
:040008005cff000099
:020000040000fa
:0200000401f009
:04001400ffffff00eb
:020000040000fa
:0200000401f009
:04001800ffff0000e6
:00000001FF
